{
  "_format": "hh-sol-artifact-1",
  "contractName": "stakingpool",
  "sourceName": "contracts/stakingpool.sol",
  "abi": [
    {
      "inputs": [
        {
          "internalType": "contract IERC20",
          "name": "_token",
          "type": "address"
        }
      ],
      "stateMutability": "nonpayable",
      "type": "constructor"
    },
    {
      "anonymous": false,
      "inputs": [
        {
          "indexed": true,
          "internalType": "address",
          "name": "user",
          "type": "address"
        },
        {
          "indexed": false,
          "internalType": "uint256",
          "name": "amount",
          "type": "uint256"
        }
      ],
      "name": "RewardClaimed",
      "type": "event"
    },
    {
      "anonymous": false,
      "inputs": [
        {
          "indexed": true,
          "internalType": "address",
          "name": "user",
          "type": "address"
        },
        {
          "indexed": false,
          "internalType": "uint256",
          "name": "amount",
          "type": "uint256"
        }
      ],
      "name": "Staked",
      "type": "event"
    },
    {
      "anonymous": false,
      "inputs": [
        {
          "indexed": true,
          "internalType": "address",
          "name": "user",
          "type": "address"
        },
        {
          "indexed": false,
          "internalType": "uint256",
          "name": "amount",
          "type": "uint256"
        }
      ],
      "name": "Withdrawn",
      "type": "event"
    },
    {
      "inputs": [
        {
          "internalType": "address",
          "name": "",
          "type": "address"
        }
      ],
      "name": "Rewardbalances",
      "outputs": [
        {
          "internalType": "uint256",
          "name": "",
          "type": "uint256"
        }
      ],
      "stateMutability": "view",
      "type": "function"
    },
    {
      "inputs": [
        {
          "internalType": "address",
          "name": "",
          "type": "address"
        }
      ],
      "name": "balances",
      "outputs": [
        {
          "internalType": "uint256",
          "name": "",
          "type": "uint256"
        }
      ],
      "stateMutability": "view",
      "type": "function"
    },
    {
      "inputs": [
        {
          "internalType": "address",
          "name": "user",
          "type": "address"
        }
      ],
      "name": "calculateReward",
      "outputs": [
        {
          "internalType": "uint256",
          "name": "",
          "type": "uint256"
        }
      ],
      "stateMutability": "view",
      "type": "function"
    },
    {
      "inputs": [],
      "name": "claimRewards",
      "outputs": [],
      "stateMutability": "nonpayable",
      "type": "function"
    },
    {
      "inputs": [
        {
          "internalType": "address",
          "name": "user",
          "type": "address"
        }
      ],
      "name": "getRewardAmount",
      "outputs": [
        {
          "internalType": "uint256",
          "name": "",
          "type": "uint256"
        }
      ],
      "stateMutability": "view",
      "type": "function"
    },
    {
      "inputs": [
        {
          "internalType": "address",
          "name": "user",
          "type": "address"
        }
      ],
      "name": "getRewaredbalance",
      "outputs": [
        {
          "internalType": "uint256",
          "name": "",
          "type": "uint256"
        }
      ],
      "stateMutability": "view",
      "type": "function"
    },
    {
      "inputs": [
        {
          "internalType": "address",
          "name": "user",
          "type": "address"
        }
      ],
      "name": "getStakedAmount",
      "outputs": [
        {
          "internalType": "uint256",
          "name": "",
          "type": "uint256"
        }
      ],
      "stateMutability": "view",
      "type": "function"
    },
    {
      "inputs": [],
      "name": "interestRate",
      "outputs": [
        {
          "internalType": "uint256",
          "name": "",
          "type": "uint256"
        }
      ],
      "stateMutability": "view",
      "type": "function"
    },
    {
      "inputs": [
        {
          "internalType": "address",
          "name": "",
          "type": "address"
        }
      ],
      "name": "lastBlock",
      "outputs": [
        {
          "internalType": "uint256",
          "name": "",
          "type": "uint256"
        }
      ],
      "stateMutability": "view",
      "type": "function"
    },
    {
      "inputs": [],
      "name": "numberBL",
      "outputs": [
        {
          "internalType": "uint256",
          "name": "",
          "type": "uint256"
        }
      ],
      "stateMutability": "view",
      "type": "function"
    },
    {
      "inputs": [
        {
          "internalType": "uint256",
          "name": "amount",
          "type": "uint256"
        }
      ],
      "name": "stake",
      "outputs": [],
      "stateMutability": "nonpayable",
      "type": "function"
    },
    {
      "inputs": [],
      "name": "token",
      "outputs": [
        {
          "internalType": "contract IERC20",
          "name": "",
          "type": "address"
        }
      ],
      "stateMutability": "view",
      "type": "function"
    },
    {
      "inputs": [
        {
          "internalType": "uint256",
          "name": "amount",
          "type": "uint256"
        }
      ],
      "name": "withdraw",
      "outputs": [],
      "stateMutability": "nonpayable",
      "type": "function"
    }
  ],
  "bytecode": "0x60806040526000600460006101000a81548160ff0219169083151502179055503480156200002c57600080fd5b506040516200162b3803806200162b833981810160405281019062000052919062000117565b806000806101000a81548173ffffffffffffffffffffffffffffffffffffffff021916908373ffffffffffffffffffffffffffffffffffffffff1602179055505062000149565b600080fd5b600073ffffffffffffffffffffffffffffffffffffffff82169050919050565b6000620000cb826200009e565b9050919050565b6000620000df82620000be565b9050919050565b620000f181620000d2565b8114620000fd57600080fd5b50565b6000815190506200011181620000e6565b92915050565b60006020828403121562000130576200012f62000099565b5b6000620001408482850162000100565b91505092915050565b6114d280620001596000396000f3fe608060405234801561001057600080fd5b50600436106100cf5760003560e01c806389c9925a1161008c578063cf6be0a011610066578063cf6be0a014610224578063d82e396214610242578063e0cfced914610272578063fc0c546a146102a2576100cf565b806389c9925a146101a8578063952ca92c146101d8578063a694fc3a14610208576100cf565b806327e235e3146100d45780632e1a7d4d14610104578063372500ab1461012057806344a040f51461012a5780634da6a5561461015a5780637c3a00fd1461018a575b600080fd5b6100ee60048036038101906100e99190610ec2565b6102c0565b6040516100fb9190610f08565b60405180910390f35b61011e60048036038101906101199190610f4f565b6102d8565b005b610128610659565b005b610144600480360381019061013f9190610ec2565b6109ff565b6040516101519190610f08565b60405180910390f35b610174600480360381019061016f9190610ec2565b610a11565b6040516101819190610f08565b60405180910390f35b610192610a5a565b60405161019f9190610f08565b60405180910390f35b6101c260048036038101906101bd9190610ec2565b610a5f565b6040516101cf9190610f08565b60405180910390f35b6101f260048036038101906101ed9190610ec2565b610a77565b6040516101ff9190610f08565b60405180910390f35b610222600480360381019061021d9190610f4f565b610a8f565b005b61022c610d0a565b6040516102399190610f08565b60405180910390f35b61025c60048036038101906102579190610ec2565b610d12565b6040516102699190610f08565b60405180910390f35b61028c60048036038101906102879190610ec2565b610df2565b6040516102999190610f08565b60405180910390f35b6102aa610e3b565b6040516102b79190610fdb565b60405180910390f35b60016020528060005260406000206000915090505481565b600460009054906101000a900460ff1615610328576040517f08c379a000000000000000000000000000000000000000000000000000000000815260040161031f90611053565b60405180910390fd5b6001600460006101000a81548160ff02191690831515021790555060008111610386576040517f08c379a000000000000000000000000000000000000000000000000000000000815260040161037d906110bf565b60405180910390fd5b600160003373ffffffffffffffffffffffffffffffffffffffff1673ffffffffffffffffffffffffffffffffffffffff16815260200190815260200160002054811115610408576040517f08c379a00000000000000000000000000000000000000000000000000000000081526004016103ff9061112b565b60405180910390fd5b600061041333610d12565b905081600160003373ffffffffffffffffffffffffffffffffffffffff1673ffffffffffffffffffffffffffffffffffffffff1681526020019081526020016000206000828254610464919061117a565b9250508190555060008111156104cb5780600260003373ffffffffffffffffffffffffffffffffffffffff1673ffffffffffffffffffffffffffffffffffffffff16815260200190815260200160002060008282546104c391906111ae565b925050819055505b60008054906101000a900473ffffffffffffffffffffffffffffffffffffffff1673ffffffffffffffffffffffffffffffffffffffff1663a9059cbb33846040518363ffffffff1660e01b81526004016105269291906111f1565b6020604051808303816000875af1158015610545573d6000803e3d6000fd5b505050506040513d601f19601f820116820180604052508101906105699190611252565b6105a8576040517f08c379a000000000000000000000000000000000000000000000000000000000815260040161059f906112cb565b60405180910390fd5b43600360003373ffffffffffffffffffffffffffffffffffffffff1673ffffffffffffffffffffffffffffffffffffffff168152602001908152602001600020819055503373ffffffffffffffffffffffffffffffffffffffff167f7084f5476618d8e60b11ef0d7d3f06914655adb8793e28ff7f018d4c76d505d5836040516106329190610f08565b60405180910390a2506000600460006101000a81548160ff02191690831515021790555050565b600460009054906101000a900460ff16156106a9576040517f08c379a00000000000000000000000000000000000000000000000000000000081526004016106a090611053565b60405180910390fd5b6001600460006101000a81548160ff02191690831515021790555060006106cf33610d12565b905080600260003373ffffffffffffffffffffffffffffffffffffffff1673ffffffffffffffffffffffffffffffffffffffff168152602001908152602001600020600082825461072091906111ae565b925050819055506000600260003373ffffffffffffffffffffffffffffffffffffffff1673ffffffffffffffffffffffffffffffffffffffff16815260200190815260200160002054116107a9576040517f08c379a00000000000000000000000000000000000000000000000000000000081526004016107a090611337565b60405180910390fd5b60008054906101000a900473ffffffffffffffffffffffffffffffffffffffff1673ffffffffffffffffffffffffffffffffffffffff1663a9059cbb33600260003373ffffffffffffffffffffffffffffffffffffffff1673ffffffffffffffffffffffffffffffffffffffff168152602001908152602001600020546040518363ffffffff1660e01b81526004016108439291906111f1565b6020604051808303816000875af1158015610862573d6000803e3d6000fd5b505050506040513d601f19601f820116820180604052508101906108869190611252565b6108c5576040517f08c379a00000000000000000000000000000000000000000000000000000000081526004016108bc906113a3565b60405180910390fd5b6000600260003373ffffffffffffffffffffffffffffffffffffffff1673ffffffffffffffffffffffffffffffffffffffff1681526020019081526020016000205490506000600260003373ffffffffffffffffffffffffffffffffffffffff1673ffffffffffffffffffffffffffffffffffffffff1681526020019081526020016000208190555043600360003373ffffffffffffffffffffffffffffffffffffffff1673ffffffffffffffffffffffffffffffffffffffff168152602001908152602001600020819055503373ffffffffffffffffffffffffffffffffffffffff167f106f923f993c2149d49b4255ff723acafa1f2d94393f561d3eda32ae348f7241826040516109d89190610f08565b60405180910390a250506000600460006101000a81548160ff021916908315150217905550565b6000610a0a82610d12565b9050919050565b6000600160008373ffffffffffffffffffffffffffffffffffffffff1673ffffffffffffffffffffffffffffffffffffffff168152602001908152602001600020549050919050565b600281565b60026020528060005260406000206000915090505481565b60036020528060005260406000206000915090505481565b60008111610ad2576040517f08c379a0000000000000000000000000000000000000000000000000000000008152600401610ac9906110bf565b60405180910390fd5b60008054906101000a900473ffffffffffffffffffffffffffffffffffffffff1673ffffffffffffffffffffffffffffffffffffffff166323b872dd3330846040518463ffffffff1660e01b8152600401610b2f939291906113c3565b6020604051808303816000875af1158015610b4e573d6000803e3d6000fd5b505050506040513d601f19601f82011682018060405250810190610b729190611252565b610bb1576040517f08c379a0000000000000000000000000000000000000000000000000000000008152600401610ba8906112cb565b60405180910390fd5b6000610bbc33610d12565b90506000811115610c1e5780600260003373ffffffffffffffffffffffffffffffffffffffff1673ffffffffffffffffffffffffffffffffffffffff1681526020019081526020016000206000828254610c1691906111ae565b925050819055505b81600160003373ffffffffffffffffffffffffffffffffffffffff1673ffffffffffffffffffffffffffffffffffffffff1681526020019081526020016000206000828254610c6d91906111ae565b9250508190555043600360003373ffffffffffffffffffffffffffffffffffffffff1673ffffffffffffffffffffffffffffffffffffffff168152602001908152602001600020819055503373ffffffffffffffffffffffffffffffffffffffff167f9e71bc8eea02a63969f509818f2dafb9254532904319f9dbda79b67bd34a5f3d83604051610cfe9190610f08565b60405180910390a25050565b600043905090565b600080600a600360008573ffffffffffffffffffffffffffffffffffffffff1673ffffffffffffffffffffffffffffffffffffffff1681526020019081526020016000205443610d62919061117a565b610d6c9190611429565b905060008103610d80576000915050610ded565b60006064826002600160008873ffffffffffffffffffffffffffffffffffffffff1673ffffffffffffffffffffffffffffffffffffffff16815260200190815260200160002054610dd1919061145a565b610ddb919061145a565b610de59190611429565b905080925050505b919050565b6000600260008373ffffffffffffffffffffffffffffffffffffffff1673ffffffffffffffffffffffffffffffffffffffff168152602001908152602001600020549050919050565b60008054906101000a900473ffffffffffffffffffffffffffffffffffffffff1681565b600080fd5b600073ffffffffffffffffffffffffffffffffffffffff82169050919050565b6000610e8f82610e64565b9050919050565b610e9f81610e84565b8114610eaa57600080fd5b50565b600081359050610ebc81610e96565b92915050565b600060208284031215610ed857610ed7610e5f565b5b6000610ee684828501610ead565b91505092915050565b6000819050919050565b610f0281610eef565b82525050565b6000602082019050610f1d6000830184610ef9565b92915050565b610f2c81610eef565b8114610f3757600080fd5b50565b600081359050610f4981610f23565b92915050565b600060208284031215610f6557610f64610e5f565b5b6000610f7384828501610f3a565b91505092915050565b6000819050919050565b6000610fa1610f9c610f9784610e64565b610f7c565b610e64565b9050919050565b6000610fb382610f86565b9050919050565b6000610fc582610fa8565b9050919050565b610fd581610fba565b82525050565b6000602082019050610ff06000830184610fcc565b92915050565b600082825260208201905092915050565b7f5265656e7472616e742063616c6c000000000000000000000000000000000000600082015250565b600061103d600e83610ff6565b915061104882611007565b602082019050919050565b6000602082019050818103600083015261106c81611030565b9050919050565b7f416d6f756e74206d7573742062652067726561746572207468616e2030000000600082015250565b60006110a9601d83610ff6565b91506110b482611073565b602082019050919050565b600060208201905081810360008301526110d88161109c565b9050919050565b7f496e73756666696369656e742062616c616e6365000000000000000000000000600082015250565b6000611115601483610ff6565b9150611120826110df565b602082019050919050565b6000602082019050818103600083015261114481611108565b9050919050565b7f4e487b7100000000000000000000000000000000000000000000000000000000600052601160045260246000fd5b600061118582610eef565b915061119083610eef565b92508282039050818111156111a8576111a761114b565b5b92915050565b60006111b982610eef565b91506111c483610eef565b92508282019050808211156111dc576111db61114b565b5b92915050565b6111eb81610e84565b82525050565b600060408201905061120660008301856111e2565b6112136020830184610ef9565b9392505050565b60008115159050919050565b61122f8161121a565b811461123a57600080fd5b50565b60008151905061124c81611226565b92915050565b60006020828403121561126857611267610e5f565b5b60006112768482850161123d565b91505092915050565b7f546f6b656e207472616e73666572206661696c65640000000000000000000000600082015250565b60006112b5601583610ff6565b91506112c08261127f565b602082019050919050565b600060208201905081810360008301526112e4816112a8565b9050919050565b7f4e4f2052657761726420746f20636c61696d0000000000000000000000000000600082015250565b6000611321601283610ff6565b915061132c826112eb565b602082019050919050565b6000602082019050818103600083015261135081611314565b9050919050565b7f526577617264207472616e73666572206661696c656400000000000000000000600082015250565b600061138d601683610ff6565b915061139882611357565b602082019050919050565b600060208201905081810360008301526113bc81611380565b9050919050565b60006060820190506113d860008301866111e2565b6113e560208301856111e2565b6113f26040830184610ef9565b949350505050565b7f4e487b7100000000000000000000000000000000000000000000000000000000600052601260045260246000fd5b600061143482610eef565b915061143f83610eef565b92508261144f5761144e6113fa565b5b828204905092915050565b600061146582610eef565b915061147083610eef565b925082820261147e81610eef565b915082820484148315176114955761149461114b565b5b509291505056fea2646970667358221220626264249ea0a4ea6d259a3cc45414de04a33fe1172121ef3f94789f99ede39764736f6c63430008120033",
  "linkReferences": {},
  "deployedLinkReferences": {}
}