{
  "_format": "hh-sol-artifact-1",
  "contractName": "StakingToken",
  "sourceName": "contracts/stakingToken.sol",
  "abi": [
    {
      "inputs": [],
      "stateMutability": "nonpayable",
      "type": "constructor"
    },
    {
      "anonymous": false,
      "inputs": [
        {
          "indexed": true,
          "internalType": "address",
          "name": "owner",
          "type": "address"
        },
        {
          "indexed": true,
          "internalType": "address",
          "name": "spender",
          "type": "address"
        },
        {
          "indexed": false,
          "internalType": "uint256",
          "name": "value",
          "type": "uint256"
        }
      ],
      "name": "Approval",
      "type": "event"
    },
    {
      "anonymous": false,
      "inputs": [
        {
          "indexed": true,
          "internalType": "address",
          "name": "previousOwner",
          "type": "address"
        },
        {
          "indexed": true,
          "internalType": "address",
          "name": "newOwner",
          "type": "address"
        }
      ],
      "name": "OwnershipTransferred",
      "type": "event"
    },
    {
      "anonymous": false,
      "inputs": [
        {
          "indexed": true,
          "internalType": "address",
          "name": "from",
          "type": "address"
        },
        {
          "indexed": true,
          "internalType": "address",
          "name": "to",
          "type": "address"
        },
        {
          "indexed": false,
          "internalType": "uint256",
          "name": "value",
          "type": "uint256"
        }
      ],
      "name": "Transfer",
      "type": "event"
    },
    {
      "inputs": [
        {
          "internalType": "address",
          "name": "owner",
          "type": "address"
        },
        {
          "internalType": "address",
          "name": "spender",
          "type": "address"
        }
      ],
      "name": "allowance",
      "outputs": [
        {
          "internalType": "uint256",
          "name": "",
          "type": "uint256"
        }
      ],
      "stateMutability": "view",
      "type": "function"
    },
    {
      "inputs": [
        {
          "internalType": "address",
          "name": "spender",
          "type": "address"
        },
        {
          "internalType": "uint256",
          "name": "amount",
          "type": "uint256"
        }
      ],
      "name": "approve",
      "outputs": [
        {
          "internalType": "bool",
          "name": "",
          "type": "bool"
        }
      ],
      "stateMutability": "nonpayable",
      "type": "function"
    },
    {
      "inputs": [
        {
          "internalType": "address",
          "name": "account",
          "type": "address"
        }
      ],
      "name": "balanceOf",
      "outputs": [
        {
          "internalType": "uint256",
          "name": "",
          "type": "uint256"
        }
      ],
      "stateMutability": "view",
      "type": "function"
    },
    {
      "inputs": [],
      "name": "decimals",
      "outputs": [
        {
          "internalType": "uint8",
          "name": "",
          "type": "uint8"
        }
      ],
      "stateMutability": "view",
      "type": "function"
    },
    {
      "inputs": [
        {
          "internalType": "address",
          "name": "spender",
          "type": "address"
        },
        {
          "internalType": "uint256",
          "name": "subtractedValue",
          "type": "uint256"
        }
      ],
      "name": "decreaseAllowance",
      "outputs": [
        {
          "internalType": "bool",
          "name": "",
          "type": "bool"
        }
      ],
      "stateMutability": "nonpayable",
      "type": "function"
    },
    {
      "inputs": [
        {
          "internalType": "address",
          "name": "spender",
          "type": "address"
        },
        {
          "internalType": "uint256",
          "name": "addedValue",
          "type": "uint256"
        }
      ],
      "name": "increaseAllowance",
      "outputs": [
        {
          "internalType": "bool",
          "name": "",
          "type": "bool"
        }
      ],
      "stateMutability": "nonpayable",
      "type": "function"
    },
    {
      "inputs": [],
      "name": "name",
      "outputs": [
        {
          "internalType": "string",
          "name": "",
          "type": "string"
        }
      ],
      "stateMutability": "view",
      "type": "function"
    },
    {
      "inputs": [],
      "name": "owner",
      "outputs": [
        {
          "internalType": "address",
          "name": "",
          "type": "address"
        }
      ],
      "stateMutability": "view",
      "type": "function"
    },
    {
      "inputs": [],
      "name": "renounceOwnership",
      "outputs": [],
      "stateMutability": "nonpayable",
      "type": "function"
    },
    {
      "inputs": [],
      "name": "symbol",
      "outputs": [
        {
          "internalType": "string",
          "name": "",
          "type": "string"
        }
      ],
      "stateMutability": "view",
      "type": "function"
    },
    {
      "inputs": [],
      "name": "totalSupply",
      "outputs": [
        {
          "internalType": "uint256",
          "name": "",
          "type": "uint256"
        }
      ],
      "stateMutability": "view",
      "type": "function"
    },
    {
      "inputs": [
        {
          "internalType": "address",
          "name": "to",
          "type": "address"
        },
        {
          "internalType": "uint256",
          "name": "amount",
          "type": "uint256"
        }
      ],
      "name": "transfer",
      "outputs": [
        {
          "internalType": "bool",
          "name": "",
          "type": "bool"
        }
      ],
      "stateMutability": "nonpayable",
      "type": "function"
    },
    {
      "inputs": [
        {
          "internalType": "address",
          "name": "from",
          "type": "address"
        },
        {
          "internalType": "address",
          "name": "to",
          "type": "address"
        },
        {
          "internalType": "uint256",
          "name": "amount",
          "type": "uint256"
        }
      ],
      "name": "transferFrom",
      "outputs": [
        {
          "internalType": "bool",
          "name": "",
          "type": "bool"
        }
      ],
      "stateMutability": "nonpayable",
      "type": "function"
    },
    {
      "inputs": [
        {
          "internalType": "address",
          "name": "newOwner",
          "type": "address"
        }
      ],
      "name": "transferOwnership",
      "outputs": [],
      "stateMutability": "nonpayable",
      "type": "function"
    }
  ],
  "bytecode": "0x60806040523480156200001157600080fd5b506040518060400160405280600d81526020017f5374616b696e6720546f6b656e000000000000000000000000000000000000008152506040518060400160405280600381526020017f535454000000000000000000000000000000000000000000000000000000000081525081600390816200008f9190620008a4565b508060049081620000a19190620008a4565b505050620000c4620000b86200014b60201b60201c565b6200015360201b60201c565b6000620000d66200021960201b60201c565b600a620000e4919062000b1b565b631dcd6500620000f5919062000b6c565b90506200010933826200022260201b60201c565b6000600a826200011a919062000be6565b90506200014333734a78a8ac0c301d5f71fbea7bf797a2200403f28a836200038f60201b60201c565b505062000ed2565b600033905090565b6000600560009054906101000a900473ffffffffffffffffffffffffffffffffffffffff16905081600560006101000a81548173ffffffffffffffffffffffffffffffffffffffff021916908373ffffffffffffffffffffffffffffffffffffffff1602179055508173ffffffffffffffffffffffffffffffffffffffff168173ffffffffffffffffffffffffffffffffffffffff167f8be0079c531659141344cd1fd0a4f28419497f9722a3daafe3b4186f6b6457e060405160405180910390a35050565b60006012905090565b600073ffffffffffffffffffffffffffffffffffffffff168273ffffffffffffffffffffffffffffffffffffffff160362000294576040517f08c379a00000000000000000000000000000000000000000000000000000000081526004016200028b9062000c7f565b60405180910390fd5b620002a8600083836200062060201b60201c565b8060026000828254620002bc919062000ca1565b92505081905550806000808473ffffffffffffffffffffffffffffffffffffffff1673ffffffffffffffffffffffffffffffffffffffff168152602001908152602001600020600082825401925050819055508173ffffffffffffffffffffffffffffffffffffffff16600073ffffffffffffffffffffffffffffffffffffffff167fddf252ad1be2c89b69c2b068fc378daa952ba7f163c4a11628f55a4df523b3ef836040516200036f919062000ced565b60405180910390a36200038b600083836200062560201b60201c565b5050565b600073ffffffffffffffffffffffffffffffffffffffff168373ffffffffffffffffffffffffffffffffffffffff160362000401576040517f08c379a0000000000000000000000000000000000000000000000000000000008152600401620003f89062000d80565b60405180910390fd5b600073ffffffffffffffffffffffffffffffffffffffff168273ffffffffffffffffffffffffffffffffffffffff160362000473576040517f08c379a00000000000000000000000000000000000000000000000000000000081526004016200046a9062000e18565b60405180910390fd5b620004868383836200062060201b60201c565b60008060008573ffffffffffffffffffffffffffffffffffffffff1673ffffffffffffffffffffffffffffffffffffffff168152602001908152602001600020549050818110156200050f576040517f08c379a0000000000000000000000000000000000000000000000000000000008152600401620005069062000eb0565b60405180910390fd5b8181036000808673ffffffffffffffffffffffffffffffffffffffff1673ffffffffffffffffffffffffffffffffffffffff16815260200190815260200160002081905550816000808573ffffffffffffffffffffffffffffffffffffffff1673ffffffffffffffffffffffffffffffffffffffff168152602001908152602001600020600082825401925050819055508273ffffffffffffffffffffffffffffffffffffffff168473ffffffffffffffffffffffffffffffffffffffff167fddf252ad1be2c89b69c2b068fc378daa952ba7f163c4a11628f55a4df523b3ef84604051620005ff919062000ced565b60405180910390a36200061a8484846200062560201b60201c565b50505050565b505050565b505050565b600081519050919050565b7f4e487b7100000000000000000000000000000000000000000000000000000000600052604160045260246000fd5b7f4e487b7100000000000000000000000000000000000000000000000000000000600052602260045260246000fd5b60006002820490506001821680620006ac57607f821691505b602082108103620006c257620006c162000664565b5b50919050565b60008190508160005260206000209050919050565b60006020601f8301049050919050565b600082821b905092915050565b6000600883026200072c7fffffffffffffffffffffffffffffffffffffffffffffffffffffffffffffffff82620006ed565b620007388683620006ed565b95508019841693508086168417925050509392505050565b6000819050919050565b6000819050919050565b6000620007856200077f620007798462000750565b6200075a565b62000750565b9050919050565b6000819050919050565b620007a18362000764565b620007b9620007b0826200078c565b848454620006fa565b825550505050565b600090565b620007d0620007c1565b620007dd81848462000796565b505050565b5b818110156200080557620007f9600082620007c6565b600181019050620007e3565b5050565b601f82111562000854576200081e81620006c8565b6200082984620006dd565b8101602085101562000839578190505b620008516200084885620006dd565b830182620007e2565b50505b505050565b600082821c905092915050565b6000620008796000198460080262000859565b1980831691505092915050565b600062000894838362000866565b9150826002028217905092915050565b620008af826200062a565b67ffffffffffffffff811115620008cb57620008ca62000635565b5b620008d7825462000693565b620008e482828562000809565b600060209050601f8311600181146200091c576000841562000907578287015190505b62000913858262000886565b86555062000983565b601f1984166200092c86620006c8565b60005b8281101562000956578489015182556001820191506020850194506020810190506200092f565b8683101562000976578489015162000972601f89168262000866565b8355505b6001600288020188555050505b505050505050565b7f4e487b7100000000000000000000000000000000000000000000000000000000600052601160045260246000fd5b60008160011c9050919050565b6000808291508390505b600185111562000a1957808604811115620009f157620009f06200098b565b5b600185161562000a015780820291505b808102905062000a1185620009ba565b9450620009d1565b94509492505050565b60008262000a34576001905062000b07565b8162000a44576000905062000b07565b816001811462000a5d576002811462000a685762000a9e565b600191505062000b07565b60ff84111562000a7d5762000a7c6200098b565b5b8360020a91508482111562000a975762000a966200098b565b5b5062000b07565b5060208310610133831016604e8410600b841016171562000ad85782820a90508381111562000ad25762000ad16200098b565b5b62000b07565b62000ae78484846001620009c7565b9250905081840481111562000b015762000b006200098b565b5b81810290505b9392505050565b600060ff82169050919050565b600062000b288262000750565b915062000b358362000b0e565b925062000b647fffffffffffffffffffffffffffffffffffffffffffffffffffffffffffffffff848462000a22565b905092915050565b600062000b798262000750565b915062000b868362000750565b925082820262000b968162000750565b9150828204841483151762000bb05762000baf6200098b565b5b5092915050565b7f4e487b7100000000000000000000000000000000000000000000000000000000600052601260045260246000fd5b600062000bf38262000750565b915062000c008362000750565b92508262000c135762000c1262000bb7565b5b828204905092915050565b600082825260208201905092915050565b7f45524332303a206d696e7420746f20746865207a65726f206164647265737300600082015250565b600062000c67601f8362000c1e565b915062000c748262000c2f565b602082019050919050565b6000602082019050818103600083015262000c9a8162000c58565b9050919050565b600062000cae8262000750565b915062000cbb8362000750565b925082820190508082111562000cd65762000cd56200098b565b5b92915050565b62000ce78162000750565b82525050565b600060208201905062000d04600083018462000cdc565b92915050565b7f45524332303a207472616e736665722066726f6d20746865207a65726f20616460008201527f6472657373000000000000000000000000000000000000000000000000000000602082015250565b600062000d6860258362000c1e565b915062000d758262000d0a565b604082019050919050565b6000602082019050818103600083015262000d9b8162000d59565b9050919050565b7f45524332303a207472616e7366657220746f20746865207a65726f206164647260008201527f6573730000000000000000000000000000000000000000000000000000000000602082015250565b600062000e0060238362000c1e565b915062000e0d8262000da2565b604082019050919050565b6000602082019050818103600083015262000e338162000df1565b9050919050565b7f45524332303a207472616e7366657220616d6f756e742065786365656473206260008201527f616c616e63650000000000000000000000000000000000000000000000000000602082015250565b600062000e9860268362000c1e565b915062000ea58262000e3a565b604082019050919050565b6000602082019050818103600083015262000ecb8162000e89565b9050919050565b6115e18062000ee26000396000f3fe608060405234801561001057600080fd5b50600436106100ea5760003560e01c8063715018a61161008c578063a457c2d711610066578063a457c2d71461024f578063a9059cbb1461027f578063dd62ed3e146102af578063f2fde38b146102df576100ea565b8063715018a6146102095780638da5cb5b1461021357806395d89b4114610231576100ea565b806323b872dd116100c857806323b872dd1461015b578063313ce5671461018b57806339509351146101a957806370a08231146101d9576100ea565b806306fdde03146100ef578063095ea7b31461010d57806318160ddd1461013d575b600080fd5b6100f76102fb565b6040516101049190610d96565b60405180910390f35b61012760048036038101906101229190610e51565b61038d565b6040516101349190610eac565b60405180910390f35b6101456103b0565b6040516101529190610ed6565b60405180910390f35b61017560048036038101906101709190610ef1565b6103ba565b6040516101829190610eac565b60405180910390f35b6101936103e9565b6040516101a09190610f60565b60405180910390f35b6101c360048036038101906101be9190610e51565b6103f2565b6040516101d09190610eac565b60405180910390f35b6101f360048036038101906101ee9190610f7b565b610429565b6040516102009190610ed6565b60405180910390f35b610211610471565b005b61021b610485565b6040516102289190610fb7565b60405180910390f35b6102396104af565b6040516102469190610d96565b60405180910390f35b61026960048036038101906102649190610e51565b610541565b6040516102769190610eac565b60405180910390f35b61029960048036038101906102949190610e51565b6105b8565b6040516102a69190610eac565b60405180910390f35b6102c960048036038101906102c49190610fd2565b6105db565b6040516102d69190610ed6565b60405180910390f35b6102f960048036038101906102f49190610f7b565b610662565b005b60606003805461030a90611041565b80601f016020809104026020016040519081016040528092919081815260200182805461033690611041565b80156103835780601f1061035857610100808354040283529160200191610383565b820191906000526020600020905b81548152906001019060200180831161036657829003601f168201915b5050505050905090565b6000806103986106e5565b90506103a58185856106ed565b600191505092915050565b6000600254905090565b6000806103c56106e5565b90506103d28582856108b6565b6103dd858585610942565b60019150509392505050565b60006012905090565b6000806103fd6106e5565b905061041e81858561040f85896105db565b61041991906110a1565b6106ed565b600191505092915050565b60008060008373ffffffffffffffffffffffffffffffffffffffff1673ffffffffffffffffffffffffffffffffffffffff168152602001908152602001600020549050919050565b610479610bb8565b6104836000610c36565b565b6000600560009054906101000a900473ffffffffffffffffffffffffffffffffffffffff16905090565b6060600480546104be90611041565b80601f01602080910402602001604051908101604052809291908181526020018280546104ea90611041565b80156105375780601f1061050c57610100808354040283529160200191610537565b820191906000526020600020905b81548152906001019060200180831161051a57829003601f168201915b5050505050905090565b60008061054c6106e5565b9050600061055a82866105db565b90508381101561059f576040517f08c379a000000000000000000000000000000000000000000000000000000000815260040161059690611147565b60405180910390fd5b6105ac82868684036106ed565b60019250505092915050565b6000806105c36106e5565b90506105d0818585610942565b600191505092915050565b6000600160008473ffffffffffffffffffffffffffffffffffffffff1673ffffffffffffffffffffffffffffffffffffffff16815260200190815260200160002060008373ffffffffffffffffffffffffffffffffffffffff1673ffffffffffffffffffffffffffffffffffffffff16815260200190815260200160002054905092915050565b61066a610bb8565b600073ffffffffffffffffffffffffffffffffffffffff168173ffffffffffffffffffffffffffffffffffffffff16036106d9576040517f08c379a00000000000000000000000000000000000000000000000000000000081526004016106d0906111d9565b60405180910390fd5b6106e281610c36565b50565b600033905090565b600073ffffffffffffffffffffffffffffffffffffffff168373ffffffffffffffffffffffffffffffffffffffff160361075c576040517f08c379a00000000000000000000000000000000000000000000000000000000081526004016107539061126b565b60405180910390fd5b600073ffffffffffffffffffffffffffffffffffffffff168273ffffffffffffffffffffffffffffffffffffffff16036107cb576040517f08c379a00000000000000000000000000000000000000000000000000000000081526004016107c2906112fd565b60405180910390fd5b80600160008573ffffffffffffffffffffffffffffffffffffffff1673ffffffffffffffffffffffffffffffffffffffff16815260200190815260200160002060008473ffffffffffffffffffffffffffffffffffffffff1673ffffffffffffffffffffffffffffffffffffffff168152602001908152602001600020819055508173ffffffffffffffffffffffffffffffffffffffff168373ffffffffffffffffffffffffffffffffffffffff167f8c5be1e5ebec7d5bd14f71427d1e84f3dd0314c0f7b2291e5b200ac8c7c3b925836040516108a99190610ed6565b60405180910390a3505050565b60006108c284846105db565b90507fffffffffffffffffffffffffffffffffffffffffffffffffffffffffffffffff811461093c578181101561092e576040517f08c379a000000000000000000000000000000000000000000000000000000000815260040161092590611369565b60405180910390fd5b61093b84848484036106ed565b5b50505050565b600073ffffffffffffffffffffffffffffffffffffffff168373ffffffffffffffffffffffffffffffffffffffff16036109b1576040517f08c379a00000000000000000000000000000000000000000000000000000000081526004016109a8906113fb565b60405180910390fd5b600073ffffffffffffffffffffffffffffffffffffffff168273ffffffffffffffffffffffffffffffffffffffff1603610a20576040517f08c379a0000000000000000000000000000000000000000000000000000000008152600401610a179061148d565b60405180910390fd5b610a2b838383610cfc565b60008060008573ffffffffffffffffffffffffffffffffffffffff1673ffffffffffffffffffffffffffffffffffffffff16815260200190815260200160002054905081811015610ab1576040517f08c379a0000000000000000000000000000000000000000000000000000000008152600401610aa89061151f565b60405180910390fd5b8181036000808673ffffffffffffffffffffffffffffffffffffffff1673ffffffffffffffffffffffffffffffffffffffff16815260200190815260200160002081905550816000808573ffffffffffffffffffffffffffffffffffffffff1673ffffffffffffffffffffffffffffffffffffffff168152602001908152602001600020600082825401925050819055508273ffffffffffffffffffffffffffffffffffffffff168473ffffffffffffffffffffffffffffffffffffffff167fddf252ad1be2c89b69c2b068fc378daa952ba7f163c4a11628f55a4df523b3ef84604051610b9f9190610ed6565b60405180910390a3610bb2848484610d01565b50505050565b610bc06106e5565b73ffffffffffffffffffffffffffffffffffffffff16610bde610485565b73ffffffffffffffffffffffffffffffffffffffff1614610c34576040517f08c379a0000000000000000000000000000000000000000000000000000000008152600401610c2b9061158b565b60405180910390fd5b565b6000600560009054906101000a900473ffffffffffffffffffffffffffffffffffffffff16905081600560006101000a81548173ffffffffffffffffffffffffffffffffffffffff021916908373ffffffffffffffffffffffffffffffffffffffff1602179055508173ffffffffffffffffffffffffffffffffffffffff168173ffffffffffffffffffffffffffffffffffffffff167f8be0079c531659141344cd1fd0a4f28419497f9722a3daafe3b4186f6b6457e060405160405180910390a35050565b505050565b505050565b600081519050919050565b600082825260208201905092915050565b60005b83811015610d40578082015181840152602081019050610d25565b60008484015250505050565b6000601f19601f8301169050919050565b6000610d6882610d06565b610d728185610d11565b9350610d82818560208601610d22565b610d8b81610d4c565b840191505092915050565b60006020820190508181036000830152610db08184610d5d565b905092915050565b600080fd5b600073ffffffffffffffffffffffffffffffffffffffff82169050919050565b6000610de882610dbd565b9050919050565b610df881610ddd565b8114610e0357600080fd5b50565b600081359050610e1581610def565b92915050565b6000819050919050565b610e2e81610e1b565b8114610e3957600080fd5b50565b600081359050610e4b81610e25565b92915050565b60008060408385031215610e6857610e67610db8565b5b6000610e7685828601610e06565b9250506020610e8785828601610e3c565b9150509250929050565b60008115159050919050565b610ea681610e91565b82525050565b6000602082019050610ec16000830184610e9d565b92915050565b610ed081610e1b565b82525050565b6000602082019050610eeb6000830184610ec7565b92915050565b600080600060608486031215610f0a57610f09610db8565b5b6000610f1886828701610e06565b9350506020610f2986828701610e06565b9250506040610f3a86828701610e3c565b9150509250925092565b600060ff82169050919050565b610f5a81610f44565b82525050565b6000602082019050610f756000830184610f51565b92915050565b600060208284031215610f9157610f90610db8565b5b6000610f9f84828501610e06565b91505092915050565b610fb181610ddd565b82525050565b6000602082019050610fcc6000830184610fa8565b92915050565b60008060408385031215610fe957610fe8610db8565b5b6000610ff785828601610e06565b925050602061100885828601610e06565b9150509250929050565b7f4e487b7100000000000000000000000000000000000000000000000000000000600052602260045260246000fd5b6000600282049050600182168061105957607f821691505b60208210810361106c5761106b611012565b5b50919050565b7f4e487b7100000000000000000000000000000000000000000000000000000000600052601160045260246000fd5b60006110ac82610e1b565b91506110b783610e1b565b92508282019050808211156110cf576110ce611072565b5b92915050565b7f45524332303a2064656372656173656420616c6c6f77616e63652062656c6f7760008201527f207a65726f000000000000000000000000000000000000000000000000000000602082015250565b6000611131602583610d11565b915061113c826110d5565b604082019050919050565b6000602082019050818103600083015261116081611124565b9050919050565b7f4f776e61626c653a206e6577206f776e657220697320746865207a65726f206160008201527f6464726573730000000000000000000000000000000000000000000000000000602082015250565b60006111c3602683610d11565b91506111ce82611167565b604082019050919050565b600060208201905081810360008301526111f2816111b6565b9050919050565b7f45524332303a20617070726f76652066726f6d20746865207a65726f2061646460008201527f7265737300000000000000000000000000000000000000000000000000000000602082015250565b6000611255602483610d11565b9150611260826111f9565b604082019050919050565b6000602082019050818103600083015261128481611248565b9050919050565b7f45524332303a20617070726f766520746f20746865207a65726f20616464726560008201527f7373000000000000000000000000000000000000000000000000000000000000602082015250565b60006112e7602283610d11565b91506112f28261128b565b604082019050919050565b60006020820190508181036000830152611316816112da565b9050919050565b7f45524332303a20696e73756666696369656e7420616c6c6f77616e6365000000600082015250565b6000611353601d83610d11565b915061135e8261131d565b602082019050919050565b6000602082019050818103600083015261138281611346565b9050919050565b7f45524332303a207472616e736665722066726f6d20746865207a65726f20616460008201527f6472657373000000000000000000000000000000000000000000000000000000602082015250565b60006113e5602583610d11565b91506113f082611389565b604082019050919050565b60006020820190508181036000830152611414816113d8565b9050919050565b7f45524332303a207472616e7366657220746f20746865207a65726f206164647260008201527f6573730000000000000000000000000000000000000000000000000000000000602082015250565b6000611477602383610d11565b91506114828261141b565b604082019050919050565b600060208201905081810360008301526114a68161146a565b9050919050565b7f45524332303a207472616e7366657220616d6f756e742065786365656473206260008201527f616c616e63650000000000000000000000000000000000000000000000000000602082015250565b6000611509602683610d11565b9150611514826114ad565b604082019050919050565b60006020820190508181036000830152611538816114fc565b9050919050565b7f4f776e61626c653a2063616c6c6572206973206e6f7420746865206f776e6572600082015250565b6000611575602083610d11565b91506115808261153f565b602082019050919050565b600060208201905081810360008301526115a481611568565b905091905056fea2646970667358221220ad0c769ace78b5033f5834cded510854ac83018f28d52fe64b4555ae6f8f32cf64736f6c63430008120033",
  "linkReferences": {},
  "deployedLinkReferences": {}
}