{
  "_format": "hh-sol-artifact-1",
  "contractName": "stakingpool",
  "sourceName": "contracts/stakingpool.sol",
  "abi": [
    {
      "inputs": [
        {
          "internalType": "contract IERC20",
          "name": "_token",
          "type": "address"
        }
      ],
      "stateMutability": "nonpayable",
      "type": "constructor"
    },
    {
      "anonymous": false,
      "inputs": [
        {
          "indexed": true,
          "internalType": "address",
          "name": "user",
          "type": "address"
        },
        {
          "indexed": false,
          "internalType": "uint256",
          "name": "amount",
          "type": "uint256"
        }
      ],
      "name": "RewardClaimed",
      "type": "event"
    },
    {
      "anonymous": false,
      "inputs": [
        {
          "indexed": true,
          "internalType": "address",
          "name": "user",
          "type": "address"
        },
        {
          "indexed": false,
          "internalType": "uint256",
          "name": "amount",
          "type": "uint256"
        }
      ],
      "name": "Staked",
      "type": "event"
    },
    {
      "anonymous": false,
      "inputs": [
        {
          "indexed": true,
          "internalType": "address",
          "name": "user",
          "type": "address"
        },
        {
          "indexed": false,
          "internalType": "uint256",
          "name": "amount",
          "type": "uint256"
        }
      ],
      "name": "Withdrawn",
      "type": "event"
    },
    {
      "inputs": [
        {
          "internalType": "address",
          "name": "",
          "type": "address"
        }
      ],
      "name": "Rewardbalances",
      "outputs": [
        {
          "internalType": "uint256",
          "name": "",
          "type": "uint256"
        }
      ],
      "stateMutability": "view",
      "type": "function"
    },
    {
      "inputs": [
        {
          "internalType": "address",
          "name": "",
          "type": "address"
        }
      ],
      "name": "balances",
      "outputs": [
        {
          "internalType": "uint256",
          "name": "",
          "type": "uint256"
        }
      ],
      "stateMutability": "view",
      "type": "function"
    },
    {
      "inputs": [
        {
          "internalType": "address",
          "name": "user",
          "type": "address"
        }
      ],
      "name": "calculateReward",
      "outputs": [
        {
          "internalType": "uint256",
          "name": "",
          "type": "uint256"
        }
      ],
      "stateMutability": "view",
      "type": "function"
    },
    {
      "inputs": [],
      "name": "claimRewards",
      "outputs": [],
      "stateMutability": "nonpayable",
      "type": "function"
    },
    {
      "inputs": [
        {
          "internalType": "address",
          "name": "user",
          "type": "address"
        }
      ],
      "name": "getRewardAmount",
      "outputs": [
        {
          "internalType": "uint256",
          "name": "",
          "type": "uint256"
        }
      ],
      "stateMutability": "view",
      "type": "function"
    },
    {
      "inputs": [
        {
          "internalType": "address",
          "name": "user",
          "type": "address"
        }
      ],
      "name": "getRewaredbalance",
      "outputs": [
        {
          "internalType": "uint256",
          "name": "",
          "type": "uint256"
        }
      ],
      "stateMutability": "view",
      "type": "function"
    },
    {
      "inputs": [
        {
          "internalType": "address",
          "name": "user",
          "type": "address"
        }
      ],
      "name": "getStakedAmount",
      "outputs": [
        {
          "internalType": "uint256",
          "name": "",
          "type": "uint256"
        }
      ],
      "stateMutability": "view",
      "type": "function"
    },
    {
      "inputs": [],
      "name": "interestRate",
      "outputs": [
        {
          "internalType": "uint256",
          "name": "",
          "type": "uint256"
        }
      ],
      "stateMutability": "view",
      "type": "function"
    },
    {
      "inputs": [
        {
          "internalType": "address",
          "name": "",
          "type": "address"
        }
      ],
      "name": "lastBlock",
      "outputs": [
        {
          "internalType": "uint256",
          "name": "",
          "type": "uint256"
        }
      ],
      "stateMutability": "view",
      "type": "function"
    },
    {
      "inputs": [
        {
          "internalType": "uint256",
          "name": "amount",
          "type": "uint256"
        }
      ],
      "name": "stake",
      "outputs": [],
      "stateMutability": "nonpayable",
      "type": "function"
    },
    {
      "inputs": [],
      "name": "token",
      "outputs": [
        {
          "internalType": "contract IERC20",
          "name": "",
          "type": "address"
        }
      ],
      "stateMutability": "view",
      "type": "function"
    },
    {
      "inputs": [
        {
          "internalType": "uint256",
          "name": "amount",
          "type": "uint256"
        }
      ],
      "name": "withdraw",
      "outputs": [],
      "stateMutability": "nonpayable",
      "type": "function"
    }
  ],
  "bytecode": "0x60806040526000600460006101000a81548160ff0219169083151502179055503480156200002c57600080fd5b50604051620015ea380380620015ea833981810160405281019062000052919062000117565b806000806101000a81548173ffffffffffffffffffffffffffffffffffffffff021916908373ffffffffffffffffffffffffffffffffffffffff1602179055505062000149565b600080fd5b600073ffffffffffffffffffffffffffffffffffffffff82169050919050565b6000620000cb826200009e565b9050919050565b6000620000df82620000be565b9050919050565b620000f181620000d2565b8114620000fd57600080fd5b50565b6000815190506200011181620000e6565b92915050565b60006020828403121562000130576200012f62000099565b5b6000620001408482850162000100565b91505092915050565b61149180620001596000396000f3fe608060405234801561001057600080fd5b50600436106100b45760003560e01c806389c9925a1161007157806389c9925a1461018d578063952ca92c146101bd578063a694fc3a146101ed578063d82e396214610209578063e0cfced914610239578063fc0c546a14610269576100b4565b806327e235e3146100b95780632e1a7d4d146100e9578063372500ab1461010557806344a040f51461010f5780634da6a5561461013f5780637c3a00fd1461016f575b600080fd5b6100d360048036038101906100ce9190610e81565b610287565b6040516100e09190610ec7565b60405180910390f35b61010360048036038101906100fe9190610f0e565b61029f565b005b61010d610620565b005b61012960048036038101906101249190610e81565b6109c6565b6040516101369190610ec7565b60405180910390f35b61015960048036038101906101549190610e81565b6109d8565b6040516101669190610ec7565b60405180910390f35b610177610a21565b6040516101849190610ec7565b60405180910390f35b6101a760048036038101906101a29190610e81565b610a26565b6040516101b49190610ec7565b60405180910390f35b6101d760048036038101906101d29190610e81565b610a3e565b6040516101e49190610ec7565b60405180910390f35b61020760048036038101906102029190610f0e565b610a56565b005b610223600480360381019061021e9190610e81565b610cd1565b6040516102309190610ec7565b60405180910390f35b610253600480360381019061024e9190610e81565b610db1565b6040516102609190610ec7565b60405180910390f35b610271610dfa565b60405161027e9190610f9a565b60405180910390f35b60016020528060005260406000206000915090505481565b600460009054906101000a900460ff16156102ef576040517f08c379a00000000000000000000000000000000000000000000000000000000081526004016102e690611012565b60405180910390fd5b6001600460006101000a81548160ff0219169083151502179055506000811161034d576040517f08c379a00000000000000000000000000000000000000000000000000000000081526004016103449061107e565b60405180910390fd5b600160003373ffffffffffffffffffffffffffffffffffffffff1673ffffffffffffffffffffffffffffffffffffffff168152602001908152602001600020548111156103cf576040517f08c379a00000000000000000000000000000000000000000000000000000000081526004016103c6906110ea565b60405180910390fd5b60006103da33610cd1565b9050600081111561043c5780600260003373ffffffffffffffffffffffffffffffffffffffff1673ffffffffffffffffffffffffffffffffffffffff16815260200190815260200160002060008282546104349190611139565b925050819055505b81600160003373ffffffffffffffffffffffffffffffffffffffff1673ffffffffffffffffffffffffffffffffffffffff168152602001908152602001600020600082825461048b919061116d565b9250508190555060008054906101000a900473ffffffffffffffffffffffffffffffffffffffff1673ffffffffffffffffffffffffffffffffffffffff1663a9059cbb33846040518363ffffffff1660e01b81526004016104ed9291906111b0565b6020604051808303816000875af115801561050c573d6000803e3d6000fd5b505050506040513d601f19601f820116820180604052508101906105309190611211565b61056f576040517f08c379a00000000000000000000000000000000000000000000000000000000081526004016105669061128a565b60405180910390fd5b43600360003373ffffffffffffffffffffffffffffffffffffffff1673ffffffffffffffffffffffffffffffffffffffff168152602001908152602001600020819055503373ffffffffffffffffffffffffffffffffffffffff167f7084f5476618d8e60b11ef0d7d3f06914655adb8793e28ff7f018d4c76d505d5836040516105f99190610ec7565b60405180910390a2506000600460006101000a81548160ff02191690831515021790555050565b600460009054906101000a900460ff1615610670576040517f08c379a000000000000000000000000000000000000000000000000000000000815260040161066790611012565b60405180910390fd5b6001600460006101000a81548160ff021916908315150217905550600061069633610cd1565b905080600260003373ffffffffffffffffffffffffffffffffffffffff1673ffffffffffffffffffffffffffffffffffffffff16815260200190815260200160002060008282546106e79190611139565b925050819055506000600260003373ffffffffffffffffffffffffffffffffffffffff1673ffffffffffffffffffffffffffffffffffffffff1681526020019081526020016000205411610770576040517f08c379a0000000000000000000000000000000000000000000000000000000008152600401610767906112f6565b60405180910390fd5b60008054906101000a900473ffffffffffffffffffffffffffffffffffffffff1673ffffffffffffffffffffffffffffffffffffffff1663a9059cbb33600260003373ffffffffffffffffffffffffffffffffffffffff1673ffffffffffffffffffffffffffffffffffffffff168152602001908152602001600020546040518363ffffffff1660e01b815260040161080a9291906111b0565b6020604051808303816000875af1158015610829573d6000803e3d6000fd5b505050506040513d601f19601f8201168201806040525081019061084d9190611211565b61088c576040517f08c379a000000000000000000000000000000000000000000000000000000000815260040161088390611362565b60405180910390fd5b6000600260003373ffffffffffffffffffffffffffffffffffffffff1673ffffffffffffffffffffffffffffffffffffffff1681526020019081526020016000205490506000600260003373ffffffffffffffffffffffffffffffffffffffff1673ffffffffffffffffffffffffffffffffffffffff1681526020019081526020016000208190555043600360003373ffffffffffffffffffffffffffffffffffffffff1673ffffffffffffffffffffffffffffffffffffffff168152602001908152602001600020819055503373ffffffffffffffffffffffffffffffffffffffff167f106f923f993c2149d49b4255ff723acafa1f2d94393f561d3eda32ae348f72418260405161099f9190610ec7565b60405180910390a250506000600460006101000a81548160ff021916908315150217905550565b60006109d182610cd1565b9050919050565b6000600160008373ffffffffffffffffffffffffffffffffffffffff1673ffffffffffffffffffffffffffffffffffffffff168152602001908152602001600020549050919050565b600281565b60026020528060005260406000206000915090505481565b60036020528060005260406000206000915090505481565b60008111610a99576040517f08c379a0000000000000000000000000000000000000000000000000000000008152600401610a909061107e565b60405180910390fd5b60008054906101000a900473ffffffffffffffffffffffffffffffffffffffff1673ffffffffffffffffffffffffffffffffffffffff166323b872dd3330846040518463ffffffff1660e01b8152600401610af693929190611382565b6020604051808303816000875af1158015610b15573d6000803e3d6000fd5b505050506040513d601f19601f82011682018060405250810190610b399190611211565b610b78576040517f08c379a0000000000000000000000000000000000000000000000000000000008152600401610b6f9061128a565b60405180910390fd5b6000610b8333610cd1565b90506000811115610be55780600260003373ffffffffffffffffffffffffffffffffffffffff1673ffffffffffffffffffffffffffffffffffffffff1681526020019081526020016000206000828254610bdd9190611139565b925050819055505b81600160003373ffffffffffffffffffffffffffffffffffffffff1673ffffffffffffffffffffffffffffffffffffffff1681526020019081526020016000206000828254610c349190611139565b9250508190555043600360003373ffffffffffffffffffffffffffffffffffffffff1673ffffffffffffffffffffffffffffffffffffffff168152602001908152602001600020819055503373ffffffffffffffffffffffffffffffffffffffff167f9e71bc8eea02a63969f509818f2dafb9254532904319f9dbda79b67bd34a5f3d83604051610cc59190610ec7565b60405180910390a25050565b600080600a600360008573ffffffffffffffffffffffffffffffffffffffff1673ffffffffffffffffffffffffffffffffffffffff1681526020019081526020016000205443610d21919061116d565b610d2b91906113e8565b905060008103610d3f576000915050610dac565b60006064826002600160008873ffffffffffffffffffffffffffffffffffffffff1673ffffffffffffffffffffffffffffffffffffffff16815260200190815260200160002054610d909190611419565b610d9a9190611419565b610da491906113e8565b905080925050505b919050565b6000600260008373ffffffffffffffffffffffffffffffffffffffff1673ffffffffffffffffffffffffffffffffffffffff168152602001908152602001600020549050919050565b60008054906101000a900473ffffffffffffffffffffffffffffffffffffffff1681565b600080fd5b600073ffffffffffffffffffffffffffffffffffffffff82169050919050565b6000610e4e82610e23565b9050919050565b610e5e81610e43565b8114610e6957600080fd5b50565b600081359050610e7b81610e55565b92915050565b600060208284031215610e9757610e96610e1e565b5b6000610ea584828501610e6c565b91505092915050565b6000819050919050565b610ec181610eae565b82525050565b6000602082019050610edc6000830184610eb8565b92915050565b610eeb81610eae565b8114610ef657600080fd5b50565b600081359050610f0881610ee2565b92915050565b600060208284031215610f2457610f23610e1e565b5b6000610f3284828501610ef9565b91505092915050565b6000819050919050565b6000610f60610f5b610f5684610e23565b610f3b565b610e23565b9050919050565b6000610f7282610f45565b9050919050565b6000610f8482610f67565b9050919050565b610f9481610f79565b82525050565b6000602082019050610faf6000830184610f8b565b92915050565b600082825260208201905092915050565b7f5265656e7472616e742063616c6c000000000000000000000000000000000000600082015250565b6000610ffc600e83610fb5565b915061100782610fc6565b602082019050919050565b6000602082019050818103600083015261102b81610fef565b9050919050565b7f416d6f756e74206d7573742062652067726561746572207468616e2030000000600082015250565b6000611068601d83610fb5565b915061107382611032565b602082019050919050565b600060208201905081810360008301526110978161105b565b9050919050565b7f496e73756666696369656e742062616c616e6365000000000000000000000000600082015250565b60006110d4601483610fb5565b91506110df8261109e565b602082019050919050565b60006020820190508181036000830152611103816110c7565b9050919050565b7f4e487b7100000000000000000000000000000000000000000000000000000000600052601160045260246000fd5b600061114482610eae565b915061114f83610eae565b92508282019050808211156111675761116661110a565b5b92915050565b600061117882610eae565b915061118383610eae565b925082820390508181111561119b5761119a61110a565b5b92915050565b6111aa81610e43565b82525050565b60006040820190506111c560008301856111a1565b6111d26020830184610eb8565b9392505050565b60008115159050919050565b6111ee816111d9565b81146111f957600080fd5b50565b60008151905061120b816111e5565b92915050565b60006020828403121561122757611226610e1e565b5b6000611235848285016111fc565b91505092915050565b7f546f6b656e207472616e73666572206661696c65640000000000000000000000600082015250565b6000611274601583610fb5565b915061127f8261123e565b602082019050919050565b600060208201905081810360008301526112a381611267565b9050919050565b7f4e4f2052657761726420746f20636c61696d0000000000000000000000000000600082015250565b60006112e0601283610fb5565b91506112eb826112aa565b602082019050919050565b6000602082019050818103600083015261130f816112d3565b9050919050565b7f526577617264207472616e73666572206661696c656400000000000000000000600082015250565b600061134c601683610fb5565b915061135782611316565b602082019050919050565b6000602082019050818103600083015261137b8161133f565b9050919050565b600060608201905061139760008301866111a1565b6113a460208301856111a1565b6113b16040830184610eb8565b949350505050565b7f4e487b7100000000000000000000000000000000000000000000000000000000600052601260045260246000fd5b60006113f382610eae565b91506113fe83610eae565b92508261140e5761140d6113b9565b5b828204905092915050565b600061142482610eae565b915061142f83610eae565b925082820261143d81610eae565b915082820484148315176114545761145361110a565b5b509291505056fea2646970667358221220036a373399d0cab2bb3ae59cfa33c78383b74e8dda132e893507ee0edecbe51464736f6c63430008120033",
  "linkReferences": {},
  "deployedLinkReferences": {}
}